{
    "_format": "hh-sol-artifact-1",
    "contractName": "Schedule",
    "sourceName": "contracts/Schedule.sol",
    "abi": [
        {
            "inputs": [
                {
                    "internalType": "string",
                    "name": "myName",
                    "type": "string"
                },
                {
                    "internalType": "string",
                    "name": "myDate",
                    "type": "string"
                }
            ],
            "stateMutability": "nonpayable",
            "type": "constructor"
        },
        {
            "anonymous": false,
            "inputs": [
                {
                    "indexed": false,
                    "internalType": "string",
                    "name": "eventName",
                    "type": "string"
                },
                {
                    "indexed": false,
                    "internalType": "uint256",
                    "name": "startTime",
                    "type": "uint256"
                },
                {
                    "indexed": false,
                    "internalType": "uint256",
                    "name": "endTime",
                    "type": "uint256"
                }
            ],
            "name": "updatedSchedule",
            "type": "event"
        },
        {
            "inputs": [
                {
                    "internalType": "uint256",
                    "name": "order",
                    "type": "uint256"
                },
                {
                    "internalType": "uint256",
                    "name": "startTime",
                    "type": "uint256"
                },
                {
                    "internalType": "uint256",
                    "name": "endTime",
                    "type": "uint256"
                },
                {
                    "internalType": "string",
                    "name": "nameOfEvent",
                    "type": "string"
                }
            ],
            "name": "addEvent",
            "outputs": [],
            "stateMutability": "nonpayable",
            "type": "function"
        },
        {
            "inputs": [],
            "name": "date",
            "outputs": [
                {
                    "internalType": "string",
                    "name": "",
                    "type": "string"
                }
            ],
            "stateMutability": "view",
            "type": "function"
        },
        {
            "inputs": [],
            "name": "getAllEvents",
            "outputs": [
                {
                    "components": [
                        {
                            "internalType": "uint256",
                            "name": "order",
                            "type": "uint256"
                        },
                        {
                            "internalType": "uint256",
                            "name": "startTime",
                            "type": "uint256"
                        },
                        {
                            "internalType": "uint256",
                            "name": "endTime",
                            "type": "uint256"
                        },
                        {
                            "internalType": "string",
                            "name": "name",
                            "type": "string"
                        }
                    ],
                    "internalType": "struct Schedule.Event[]",
                    "name": "",
                    "type": "tuple[]"
                }
            ],
            "stateMutability": "view",
            "type": "function"
        },
        {
            "inputs": [],
            "name": "name",
            "outputs": [
                {
                    "internalType": "string",
                    "name": "",
                    "type": "string"
                }
            ],
            "stateMutability": "view",
            "type": "function"
        }
    ],
    "bytecode": "0x60806040523480156200001157600080fd5b5060405162000b8438038062000b84833981810160405281019062000037919062000173565b81600190805190602001906200004f92919062000071565b5080600290805190602001906200006892919062000071565b50505062000285565b828054600181600116156101000203166002900490600052602060002090601f016020900481019282601f10620000b457805160ff1916838001178555620000e5565b82800160010185558215620000e5579182015b82811115620000e4578251825591602001919060010190620000c7565b5b509050620000f49190620000f8565b5090565b5b8082111562000113576000816000905550600101620000f9565b5090565b600082601f8301126200012957600080fd5b8151620001406200013a826200021a565b620001e6565b915080825260208301602083018583830111156200015d57600080fd5b6200016a8382846200024d565b50505092915050565b600080604083850312156200018757600080fd5b600083015167ffffffffffffffff811115620001a257600080fd5b620001b08582860162000117565b925050602083015167ffffffffffffffff811115620001ce57600080fd5b620001dc8582860162000117565b9150509250929050565b6000604051905081810181811067ffffffffffffffff8211171562000210576200020f62000283565b5b8060405250919050565b600067ffffffffffffffff82111562000238576200023762000283565b5b601f19601f8301169050602081019050919050565b60005b838110156200026d57808201518184015260208101905062000250565b838111156200027d576000848401525b50505050565bfe5b6108ef80620002956000396000f3fe608060405234801561001057600080fd5b506004361061004c5760003560e01c806306fdde0314610051578063323046b11461006f57806391c50cce1461008d578063c27a500d146100a9575b600080fd5b6100596100c7565b604051610066919061071c565b60405180910390f35b610077610165565b604051610084919061071c565b60405180910390f35b6100a760048036038101906100a29190610503565b610203565b005b6100b16102de565b6040516100be91906106fa565b60405180910390f35b60018054600181600116156101000203166002900480601f01602080910402602001604051908101604052809291908181526020018280546001816001161561010002031660029004801561015d5780601f106101325761010080835404028352916020019161015d565b820191906000526020600020905b81548152906001019060200180831161014057829003601f168201915b505050505081565b60028054600181600116156101000203166002900480601f0160208091040260200160405190810160405280929190818152602001828054600181600116156101000203166002900480156101fb5780601f106101d0576101008083540402835291602001916101fb565b820191906000526020600020905b8154815290600101906020018083116101de57829003601f168201915b505050505081565b600080815480929190600101919050555060036040518060800160405280868152602001858152602001848152602001838152509080600181540180825580915050600190039060005260206000209060040201600090919091909150600082015181600001556020820151816001015560408201518160020155606082015181600301908051906020019061029a9291906103fd565b5050507f1bae860d643c0a95497407642dc46d187bc34e6682cee3de9e7aee846ad77deb8184846040516102d09392919061073e565b60405180910390a150505050565b60606003805480602002602001604051908101604052809291908181526020016000905b828210156103f45783829060005260206000209060040201604051806080016040529081600082015481526020016001820154815260200160028201548152602001600382018054600181600116156101000203166002900480601f0160208091040260200160405190810160405280929190818152602001828054600181600116156101000203166002900480156103dc5780601f106103b1576101008083540402835291602001916103dc565b820191906000526020600020905b8154815290600101906020018083116103bf57829003601f168201915b50505050508152505081526020019060010190610302565b50505050905090565b828054600181600116156101000203166002900490600052602060002090601f016020900481019282601f1061043e57805160ff191683800117855561046c565b8280016001018555821561046c579182015b8281111561046b578251825591602001919060010190610450565b5b509050610479919061047d565b5090565b5b8082111561049657600081600090555060010161047e565b5090565b600082601f8301126104ab57600080fd5b81356104be6104b9826107ad565b61077c565b915080825260208301602083018583830111156104da57600080fd5b6104e583828461084d565b50505092915050565b6000813590506104fd816108a2565b92915050565b6000806000806080858703121561051957600080fd5b6000610527878288016104ee565b9450506020610538878288016104ee565b9350506040610549878288016104ee565b925050606085013567ffffffffffffffff81111561056657600080fd5b6105728782880161049a565b91505092959194509250565b600061058a8383610679565b905092915050565b600061059d826107ed565b6105a78185610810565b9350836020820285016105b9856107dd565b8060005b858110156105f557848403895281516105d6858261057e565b94506105e183610803565b925060208a019950506001810190506105bd565b50829750879550505050505092915050565b6000610612826107f8565b61061c8185610821565b935061062c81856020860161085c565b61063581610891565b840191505092915050565b600061064b826107f8565b6106558185610832565b935061066581856020860161085c565b61066e81610891565b840191505092915050565b600060808301600083015161069160008601826106dc565b5060208301516106a460208601826106dc565b5060408301516106b760408601826106dc565b50606083015184820360608601526106cf8282610607565b9150508091505092915050565b6106e581610843565b82525050565b6106f481610843565b82525050565b600060208201905081810360008301526107148184610592565b905092915050565b600060208201905081810360008301526107368184610640565b905092915050565b600060608201905081810360008301526107588186610640565b905061076760208301856106eb565b61077460408301846106eb565b949350505050565b6000604051905081810181811067ffffffffffffffff821117156107a3576107a261088f565b5b8060405250919050565b600067ffffffffffffffff8211156107c8576107c761088f565b5b601f19601f8301169050602081019050919050565b6000819050602082019050919050565b600081519050919050565b600081519050919050565b6000602082019050919050565b600082825260208201905092915050565b600082825260208201905092915050565b600082825260208201905092915050565b6000819050919050565b82818337600083830152505050565b60005b8381101561087a57808201518184015260208101905061085f565b83811115610889576000848401525b50505050565bfe5b6000601f19601f8301169050919050565b6108ab81610843565b81146108b657600080fd5b5056fea26469706673582212200746ea6c10781c37dcba0b1e37cb324ba06f0d9c4981d3d2b2c45926a604c95e64736f6c63430007030033",
    "linkReferences": {},
    "deployedLinkReferences": {}
}