{
  "_format": "hh-sol-artifact-1",
  "contractName": "Schedule",
  "sourceName": "contracts/Schedule.sol",
  "abi": [
    {
      "inputs": [
        {
          "internalType": "string",
          "name": "myName",
          "type": "string"
        },
        {
          "internalType": "string",
          "name": "myDate",
          "type": "string"
        }
      ],
      "stateMutability": "nonpayable",
      "type": "constructor"
    },
    {
      "anonymous": false,
      "inputs": [
        {
          "indexed": false,
          "internalType": "string",
          "name": "eventName",
          "type": "string"
        },
        {
          "indexed": false,
          "internalType": "uint256",
          "name": "startTime",
          "type": "uint256"
        },
        {
          "indexed": false,
          "internalType": "uint256",
          "name": "endTime",
          "type": "uint256"
        }
      ],
      "name": "updatedSchedule",
      "type": "event"
    },
    {
      "inputs": [
        {
          "internalType": "uint256",
          "name": "order",
          "type": "uint256"
        },
        {
          "internalType": "uint256",
          "name": "startTime",
          "type": "uint256"
        },
        {
          "internalType": "uint256",
          "name": "endTime",
          "type": "uint256"
        },
        {
          "internalType": "string",
          "name": "nameOfEvent",
          "type": "string"
        }
      ],
      "name": "addEvent",
      "outputs": [],
      "stateMutability": "nonpayable",
      "type": "function"
    },
    {
      "inputs": [],
      "name": "date",
      "outputs": [
        {
          "internalType": "string",
          "name": "",
          "type": "string"
        }
      ],
      "stateMutability": "view",
      "type": "function"
    },
    {
      "inputs": [],
      "name": "name",
      "outputs": [
        {
          "internalType": "string",
          "name": "",
          "type": "string"
        }
      ],
      "stateMutability": "view",
      "type": "function"
    },
    {
      "inputs": [],
      "name": "schedule",
      "outputs": [
        {
          "internalType": "string",
          "name": "date",
          "type": "string"
        }
      ],
      "stateMutability": "view",
      "type": "function"
    }
  ],
  "bytecode": "0x608060405234801561001057600080fd5b5060405161095a38038061095a8339818101604052604081101561003357600080fd5b810190808051604051939291908464010000000082111561005357600080fd5b8382019150602082018581111561006957600080fd5b825186600182028301116401000000008211171561008657600080fd5b8083526020830192505050908051906020019080838360005b838110156100ba57808201518184015260208101905061009f565b50505050905090810190601f1680156100e75780820380516001836020036101000a031916815260200191505b506040526020018051604051939291908464010000000082111561010a57600080fd5b8382019150602082018581111561012057600080fd5b825186600182028301116401000000008211171561013d57600080fd5b8083526020830192505050908051906020019080838360005b83811015610171578082015181840152602081019050610156565b50505050905090810190601f16801561019e5780820380516001836020036101000a031916815260200191505b5060405250505081600090805190602001906101bb9291906101da565b5080600190805190602001906101d29291906101da565b505050610277565b828054600181600116156101000203166002900490600052602060002090601f016020900481019282601f1061021b57805160ff1916838001178555610249565b82800160010185558215610249579182015b8281111561024857825182559160200191906001019061022d565b5b509050610256919061025a565b5090565b5b8082111561027357600081600090555060010161025b565b5090565b6106d4806102866000396000f3fe608060405234801561001057600080fd5b506004361061004c5760003560e01c806306fdde0314610051578063323046b1146100d457806391c50cce14610157578063b0604a2614610230575b600080fd5b6100596102b3565b6040518080602001828103825283818151815260200191508051906020019080838360005b8381101561009957808201518184015260208101905061007e565b50505050905090810190601f1680156100c65780820380516001836020036101000a031916815260200191505b509250505060405180910390f35b6100dc610351565b6040518080602001828103825283818151815260200191508051906020019080838360005b8381101561011c578082015181840152602081019050610101565b50505050905090810190601f1680156101495780820380516001836020036101000a031916815260200191505b509250505060405180910390f35b61022e6004803603608081101561016d57600080fd5b81019080803590602001909291908035906020019092919080359060200190929190803590602001906401000000008111156101a857600080fd5b8201836020820111156101ba57600080fd5b803590602001918460018302840111640100000000831117156101dc57600080fd5b91908080601f016020809104026020016040519081016040528093929190818152602001838380828437600081840152601f19601f8201169050808301925050505050505091929192905050506103ef565b005b610238610535565b6040518080602001828103825283818151815260200191508051906020019080838360005b8381101561027857808201518184015260208101905061025d565b50505050905090810190601f1680156102a55780820380516001836020036101000a031916815260200191505b509250505060405180910390f35b60008054600181600116156101000203166002900480601f0160208091040260200160405190810160405280929190818152602001828054600181600116156101000203166002900480156103495780601f1061031e57610100808354040283529160200191610349565b820191906000526020600020905b81548152906001019060200180831161032c57829003601f168201915b505050505081565b60018054600181600116156101000203166002900480601f0160208091040260200160405190810160405280929190818152602001828054600181600116156101000203166002900480156103e75780601f106103bc576101008083540402835291602001916103e7565b820191906000526020600020905b8154815290600101906020018083116103ca57829003601f168201915b505050505081565b6103f76105d9565b60405180608001604052808681526020018581526020018481526020018381525090508060026001016000600184600001510381526020019081526020016000206000820151816000015560208201518160010155604082015181600201556060820151816003019080519060200190610472929190610601565b509050507f1bae860d643c0a95497407642dc46d187bc34e6682cee3de9e7aee846ad77deb8160600151826020015183604001516040518080602001848152602001838152602001828103825285818151815260200191508051906020019080838360005b838110156104f25780820151818401526020810190506104d7565b50505050905090810190601f16801561051f5780820380516001836020036101000a031916815260200191505b5094505050505060405180910390a15050505050565b6002806000018054600181600116156101000203166002900480601f0160208091040260200160405190810160405280929190818152602001828054600181600116156101000203166002900480156105cf5780601f106105a4576101008083540402835291602001916105cf565b820191906000526020600020905b8154815290600101906020018083116105b257829003601f168201915b5050505050905081565b6040518060800160405280600081526020016000815260200160008152602001606081525090565b828054600181600116156101000203166002900490600052602060002090601f016020900481019282601f1061064257805160ff1916838001178555610670565b82800160010185558215610670579182015b8281111561066f578251825591602001919060010190610654565b5b50905061067d9190610681565b5090565b5b8082111561069a576000816000905550600101610682565b509056fea26469706673582212208cae38183cc5147a9b9818d427e6acb13d798ba48e8b66dab9ad4599f9461dd564736f6c63430007030033",
  "linkReferences": {},
  "deployedLinkReferences": {}
}